:020000040800F2
:1000000058280020D5000008DD860008F96B00089C
:1000100000000000000000000000000000000000E0
:1000200000000000000000000000000017BC0008F5
:100030000000000000000000FD93000815D8000833
:10004000E7000008E70000081BA80008E700000818
:10005000E7000008FD3000080D3100081D310008E0
:10006000E7000008E7000008E7000008A11B0008FF
:10007000E7000008E7000008B5E20008E700000814
:10008000E7000008E7000008E700000800000000A3
:10009000FDD80008E7000008E7000008E7000008B6
:1000A000E7000008E7000008E7000008ADE20008EC
:1000B000E7000008B5A7000800000000E7000008FE
:1000C0000348854600F01CFE00480047B927010898
:1000D000582800200448804704480047FEE7FEE710
:1000E000FEE7FEE7FEE7FEE7A9D80008C10000082A
:1000F00030B50B46014600202022012409E00D46C0
:10010000D5409D4205D31D469540491B2546954047
:1001100040191546521E002DF1DC30BD70B500248B
:100120002546002801DA01244042002901DA012590
:100130004942FFF7DDFFAC4200D04042002C00D026
:10014000494270BDF0B51FB40646002082B0054696
:100150004024019100901BE0019922460F46304651
:1001600000F018FC049A059B801A994110D31046A0
:100170001946224600F0FEFB361A8F4101972246AF
:1001800001200021009F00F0F5FB38184D41009040
:100190002046641E0028DFDC019B00982946324679
:1001A00007B0F0BDF0B51FB486B0002000900190FC
:1001B00002900698069980B204900798090C0204F0
:1001C0000014114307900027089D099806913E46A8
:1001D0003C4603900398A9B20204000C03900498D3
:1001E0002D0C154348430021224600F0C3FBC719DC
:1001F000714110340E46402CECDB3846029A00F078
:10020000B9FB009A019B8018009059410298019116
:10021000103002904028CCDB00980BB0F0BD0346B4
:100220000B439B0703D009E008C9121F08C0042A2A
:10023000FAD203E00B780370401C491C521EF9D21D
:100240007047D2B201E00270401C491EFBD27047D9
:100250000022F6E710B513460A4604461946FFF792
:10026000F0FF204610BD421C0178401C0029FBD144
:10027000801A704730B505460020034600E05B1C3D
:10028000934205D2EC5CC85C201A01D1002CF6D157
:1002900030BD0321001D401E037812021A43491E7F
:1002A000F9D51046704700000FB400B58DB0099025
:1002B0000B9010A900200091C0430A9000200C90E0
:1002C00006480690064807906A4609A80F9900F06C
:1002D0009BFB0DB008BC04B018470000290A0008B9
:1002E000490A0008FFB50027FF4383B000205C687F
:1002F00001909E681D46A9697F1C0498884700905C
:10030000296A88470028F6D10098401C0CD00320A9
:1003100040028443002E19DD600614D500982B2876
:1003200009D02D280FD103E00020C04307B0F0BD55
:10033000012080020443A9697F1C04988847761E27
:100340000090002E02DD0098302803D00598002888
:1003500025D035E0012040020443A969761E7F1CA8
:10036000049888470090002E03DD782805D058288F
:1003700003D00598002810D022E00598002801D06D
:1003800010281DD1012040028443A969761E7F1CDC
:10039000049888470090102002E0082000E00A201E
:1003A00005900DE0012149020C43059A0199761E42
:1003B000514308180190A9697F1C04988847009050
:1003C000002E05DD0599009800F008FB0028E9DA09
:1003D000E96904988847A00502D40120C043A5E735
:1003E000E00722D1600611D56005019800D5404292
:1003F00029680A1D2A600968220501D5087014E0E1
:10040000220701D5088010E008600EE02868011D71
:1004100029600068210502D50199017005E02107D6
:10042000019901D5018000E0016038467EE770B592
:1004300006460DF0B9FF046805460A220021304641
:1004400000F014FB2C6070BDF8B502464A40D40F92
:1004500042004B0052085B089A4202D2024608460C
:1004600011464A0023D0C30D4A00DDB2120EAD1A68
:10047000202D35DA49020126490AF6058A19002C91
:1004800000D0524220214F1B1146B9402A4110187A
:10049000C20D9A4221D0002C17D0012D08DCDA05BC
:1004A000801AD20F8019D207DBB200F01FFBF8BD13
:1004B000DA05801A012340001B06C01880185A4232
:1004C0008018CA0F1043490007E04908C2071143CA
:1004D000DA05801A80194008801800F0FFFAF8BD8C
:1004E00061000122511A001BF7E70122D207514097
:1004F000AAE70122D2075040A6E70000F0B5074660
:100500000846584087B0C00F049048000E46590076
:1005100040084908BC1A884105D2384631461E4673
:1005200017460B4602465800400810434CD0300D89
:10053000039040055900400D490D0590401A029066
:10054000402872DA18030121000B090508430190C5
:1005500004980092002805D0019952420020884159
:1005600000920190029840210A1A0199009800F027
:1005700001FA05460C466B4607CB00F01CFAC01981
:100580007141039A0E0D0023D71756401A467A4040
:10059000164344D0049A002A2DD0029A012A039AC5
:1005A00015DC1205C01A914101263605001C714167
:1005B000D20F059ED2070093019202962A46234647
:1005C00000F0DAFA07B0F0BD38463146FAE7160512
:1005D000224A0F46B218C01AB74101210905001C72
:1005E0004F4100187F41114618187941E20F10431E
:1005F0006D19644113E0E2076D0815436408C207F2
:100600001443039A01261205C01A91413605001CB5
:100610007141CE07400830434908C01851412A466D
:10062000234600F09CFACDE7FFE704980122400042
:10063000C117121A00238B4104983146C417381A87
:10064000A141EEE730B40124E407634030BC55E734
:1006500030B40124E407614030BC4FE70000E0FF04
:10066000F0B51FB488B00B99099800244840099947
:10067000C00F490049080991C0070B990090490033
:1006800049080B9109990898A64608431CD00B9974
:100690000A98084318D0099801244000420D4800E8
:1006A000410D099824050003000B204309900B9885
:1006B0000003000B20430B9050181C4940180022E7
:1006C00001901446104605E0002001460DB0F0BD33
:1006D000032801DA034600E003239C46C11A0AAE50
:1006E0000AE05F0008ADED5B4F00F75B7D4300273C
:1006F000AA187C41491C5B1E6145F2DD410004AB38
:100700005A522104120C0A43240C401C0828DFDB37
:10071000019802900099704601910090059B049AFF
:100720000799069800F028FAD0E700000DFCFFFFBB
:10073000F0B50C465C4085B0E40FE40703944C0030
:10074000002664085900944649080246029622434E
:1007500021D062460A431ED06200570D4A000E03A4
:100760002303550D012402462C492405781B1B0B3D
:10077000360B401823432643614600901C46501A0E
:10078000B44103D30098401C009002E092180098F6
:100790005B41002803DA0020014605B0F0BD0020CF
:1007A000012109050746864611E064461D46141BD3
:1007B000B54106D36546521BB341744607430C430B
:1007C000A646CD0740084908284392185B410546D4
:1007D0000D43EAD11046184313D0604619465040E5
:1007E0007140084306D06046101AB34106D2012278
:1007F000002306E000220123DB0702E00122D243AE
:100800005310009874460105381C6141029C039DF9
:100810000019694100F0A3F9BFE70000FD030000E3
:1008200070B54B005B0803430BD04B005C0D0026FA
:1008300033466542B341D417AD1AA34102DB002011
:10084000014670BD12053018514170BD10B500222F
:100850009623114600F04AF910BD00000EB5C217EC
:10086000C10F5040CA0740180021054B0293019266
:1008700000910A460B4600F07FF903B000BD00006E
:10088000330400000EB505490291002100910A468B
:100890000B46019100F070F903B000BD3304000075
:1008A00070B5CD0F4A0009030123090B1B0519433D
:1008B0000B4BED070024520D9A4201DA002070BD67
:1008C000074B34339A4203DC9A1A00F063F802E0D3
:1008D0000449511888402C43F1D0404270BD0000BB
:1008E000FF030000CDFBFFFF4A0009030123090BB2
:1008F0001B051943094B10B5520D9A4201DA00202D
:1009000010BD064B34339A4203DC9A1A00F042F8C9
:1009100010BD03495118884010BD0000FF030000BE
:10092000CDFBFFFFC20FD207400040080BD0C10D26
:100930000723DB01C91840020905400A1143C20818
:1009400040071143704700200146704710B5002949
:1009500004DB0124E40740428C412146002B04DBE8
:100960001C460123DB075242A341994200D1904229
:1009700010BD000010B5202A04DB0146203A91404A
:10098000002010BD914020239C1A0346E3401943E8
:10099000904010BD10B5202A04DB0846203AD04014
:1009A000002110BD0B46D340D0402024A21A914014
:1009B0000843194610BD10B5202A06DBCB170846A0
:1009C000203A1041C1170B4306E00B461341D040BB
:1009D0002024A21A91400843194610BD3A2800D29B
:1009E0003038202302469A43412A01D31046373833
:1009F000884201D30020C04370470000026813788A
:100A0000511801601846704710B5D1600449516112
:100A10000449116200211161114600F091F910BDE5
:100A2000FD0900082D0D00084268002A08D0016861
:100A30000B78491C002B03D0521E06C01846704785
:100A40000121C160881E70474268002A0BD0C3682C
:100A50000168002B07D183688B4204D0491E521CC9
:100A600006C0002070470020C0437047F7B5009CC7
:100A70000F4600262578641C002D05D000F052F9A1
:100A80000068405DC007F5D12B2D02D02D2D18D068
:100A9000641E39462046029A00F0EEFA002F04D078
:100AA0003968A14201D100993960710502240029F9
:100AB0000BDA4042002803DD0DF076FC0460A0074D
:100AC000FEBD012080020643E3E70028F8DA0DF0BE
:100AD0006BFC04600048FEBDFFFFFF7F002904DAC5
:100AE000401C490001D140084000704770B4002408
:100AF000050C05D11024000402D1002921D01124B5
:100B0000050E01D100020834050F01D10001241D9A
:100B1000850F01D18000A41C002801DB4000641C6B
:100B2000002908D020252E1B0D46F540A14000D0FD
:100B300001212943084301061B1B000ADB1D02D5C6
:100B4000002070BC7047DB05181880180029F8DAFF
:100B5000401C4900F5D170BC40084000704710B5FA
:100B6000002B08DA0024401C614192185B411A43B3
:100B700001D14008400010BDF0B51FB482B0054659
:100B80000C0003D008460DF0D3FB02E00DF0D0FBC3
:100B900020300246009021462846FFF7EBFE049BDA
:100BA000059A04460F4618431143084314D01846CB
:100BB00010431BD0009840210A1A18460599FFF7E8
:100BC000E9FE05460E46009A05990498FFF7D2FE05
:100BD000084305D0012004E02046394607B0F0BDA7
:100BE0000020C11705430E432C43374300990E984C
:100BF0006305401A7905E40A00220C43FD0A0A3015
:100C000002D500200146E9E70105101969410C9C55
:100C10000D9D00196941FFF7A2FFDFE7F8B5054612
:100C2000480040080C46284304D06000184A400D94
:100C3000904201DD2846F8BD15493539884210DC5F
:100C400088420BDB290D200308432903014305D00B
:100C5000E00F1049C00741180020F8BD00200146F0
:100C6000F8BD161A4020821B28462146FFF782FE57
:100C700007460091284621463246FFF78BFE3A464A
:100C8000009BFFF76CFF3246FFF774FEF8BD0000D3
:100C9000330400000000F03F4A0009030123090B60
:100CA0001B0519430A4B10B5520D9A4202DA002077
:100CB000014610BD064B34339A4203DC9A1AFFF703
:100CC00069FE10BD034BD218FFF754FE10BD0000A3
:100CD000FF030000CDFBFFFF10B5002904DB01245A
:100CE000E40740428C412146002B04DB1C460123D3
:100CF000DB075242A3418B4200D1824210BD00006B
:100D0000064C0125064E05E0E36807CC2B430C3C5E
:100D100098471034B442F7D3FFF7D6F95C7E010848
:100D20007C7E010800487047345B010810B504461A
:100D3000FFF7F8FF0068005DC007C00F10BD00009E
:100D4000F3B58DB000200A9001200B9000260846D4
:100D50000C300C4609906269012109989047051EE4
:100D60002ED0252D2DD0216A8847002818D0626901
:100D7000012109989047216A88470028F7D1411E30
:100D800062690998904700E0761CA1690D98884730
:100D9000216A88470028F7D1E1690D988847DAE78A
:100DA000A1690D9888470746A84201D1761CD2E771
:100DB000E1690D9888477F1C02D10A98002877D0F6
:100DC00049E1002762693D463946099890472A283B
:100DD0000CD16269012109989047012506E00A219A
:100DE0004F433F18303FEBD4102005436269012187
:100DF00009989047014630390A2903D29B498F420E
:100E0000DEDCECE7E90600D4994F6C280AD04C28C8
:100E100010D0682824D06A282ED074280CD07A28C4
:100E20000AD00DE062690121099890476C2823D00F
:100E300004211CE0202005436269012109989047A4
:100E4000A760656065284FD026DC582839D01ADCA9
:100E5000452849D012DC252834D04128B0D143E0C0
:100E60006269012109989047682802D008210D4342
:100E7000E6E70120C002DEE70220DCE7462833D0A7
:100E800047282CD130E05B2870D061282CD0632813
:100E90006CD0642823D161E06F284FD009DC66282C
:100EA00022D0672820D0692826D06E2817D12EE0BE
:100EB000CDE070284DD073286FD075284ED078289B
:100EC0000DD154E0A1690D9888470546252800D129
:100ED0006CE7E1690D9888476D1C00D16DE7BAE0B9
:100EE0000A224CE00A2252E0012023466A46C0430F
:100EF0000D99C046C046A3E02846402108436060E3
:100F0000A807234601D5002239E000223FE0E80788
:100F100000D020E72068011D21600068290501D567
:100F2000067018E7290701D5068014E7A90703D53D
:100F3000F117066041600EE706600CE72846402185
:100F400008436060A807234601D5082217E008225D
:100F50001DE0484928460840606016E028464021C8
:100F600008436060A8072346BCD5B9E715E02846CA
:100F7000402108436060A80707D5234610220120BE
:100F8000C0430D99C046C0465AE0234610220120B6
:100F9000C0430D99FFF7A6F952E000210C910B46D2
:100FA0000091632802D05B2807D043E0E80601D413
:100FB0000120A060012000903CE0626901210998B5
:100FC00090475E2805D101200C900146626909987E
:100FD00090472169002906D10B4601AA8F00491CC0
:100FE000D3510829FADB002835D0216900290ED118
:100FF000C117C90E09184A11930001AA9A18490984
:101000004901411A01201368884003431360626953
:101010000121099890475D28E5D10C98002808D057
:10102000002001AB81005A58401CD2435A50082876
:10103000F8DB01AB01202246C0430D99C046C046F3
:1010400000280ADA401C06D10B98002803D00020A3
:10105000C0430FB0F0BD0A98FBE7E90702D10A9937
:10106000491C0A91361800200B9074E6CCCCCC0CAD
:10107000FFFFFF7FF1F7FFFFF7B582B0029C00276B
:101080002078641C15460197302802D0002D15D019
:1010900015E020780127641C782804D0582802D055
:1010A000002D09D00BE0002D01D0102D07D1002715
:1010B00010252078641C02E0082500E00A2500269F
:1010C000009610E00099012769430818020C294690
:1010D00080B2714300908E183804864201D30120FB
:1010E00001902078641C2946FFF778FC0028E9DA93
:1010F0000398002805D0002F01D0641E00E0029C58
:1011000004600198002806D00DF04EF9022101601C
:10111000C81E05B0F0BD009930040843F9E770B56A
:101120008C180578401C6B075B0F01D10378401CBD
:101130002A1106D10278401C03E006780E70401C8C
:10114000491C5B1EF9D12B0705D40023521E0DD478
:101150000B70491CFAE70378401CCB1A921C03E081
:101160001D780D70491C5B1C521EF9D5A142D8D3C5
:10117000002070BD38B50446064805490068FEF7F2
:10118000B7FF604300E0401E00900028FBD138BD4F
:1011900040420F0054000020F8B504460068816802
:1011A0008907890F012902D10168C90722D1816805
:1011B000114A10261140012500290ED181682943CA
:1011C00081600120FFF7D6FF03F05EF807460CE0D0
:1011D00003F05AF8C01B0A2807D9A06D3043A06558
:1011E000E06D2843E0650120F8BD20680068C04339
:1011F000C007EDD10020F8BD17000080F0B589B020
:101200000C46074610220021684611F023FE69466D
:10121000224608460DF03DFD684600788726010607
:10122000684600290FDA00214318425C5B785200BF
:10123000DB091A434254491C0F29F5DBC17B0246E6
:10124000490071400DE000214318425C5B78520078
:10125000DB091A434254491C0F29F5DBC17B0246C6
:101260004900D173E21DF9325169102912D0017879
:1012700009061BD500214518435C6D785B00ED091C
:101280002B434354491C0F29F5DBC17B034649001E
:10129000714019E000216218FF3201325378455C39
:1012A000491C6B4053701029F5DB26E000214518DE
:1012B000435C6D785B00ED092B434354491C0F29B7
:1012C000F5DBC17B03464900D973E11D55698023D5
:1012D000FA316B54002500E05D5453695B1C536187
:1012E000102BF9D300216218FF3201325378455C8C
:1012F000491C6B4053701029F5DB00216218104621
:10130000FF32E0300132437C5278491C5340437431
:101310001029F3DB21461022F13104A811F082FDDF
:101320002246394604A80DF0B4FC1022002168467C
:1013300011F090FD09B0F0BD10B504461022002157
:10134000F13011F087FDFF20002115300151F0220E
:10135000204611F07FFD10BD0B4610B5024610214E
:1013600018460DF0C1FC10BDF0B50446FF308BB03F
:101370000F4601300890E11D4069FA3100911039A3
:1013800015460791002843D010210E1AAE4200D313
:1013900016460099B2B24018394611F043FD08983C
:1013A000089940698019486110283AD3B54238D06D
:1013B000002162181046FF32E0300132437C52783F
:1013C000491C534043741029F3DB07992246084611
:1013D0000DF05FFCBF19AD1B1AE000202118E031B1
:1013E0004A7C3B5C401C5A404A741028F6DB1022B1
:1013F00002A8079911F016FD02A9224608460DF031
:1014000048FC102202A9079811F00CFD103D10377E
:10141000102DE2D8AAB23946009811F003FD0898C1
:1014200045610BB0F0BD0000F7B523498022097C6F
:10143000214B511ACDB2D97B1B7C8026F31A0A4668
:10144000DEB2871E491C0124C9B2761E3B000CF097
:101450009EFF09060C060C120C06062B3000164BDC
:10146000AA4224D2154CA05403E0134BB24215DB20
:101470001DE0D9730DE0104EAD1EAA4217DA0F4BD6
:10148000985401985854491CC8B202991954401CE8
:10149000F073002408480121817308E0074CA05430
:1014A00001986054491CE4E7034BAA42F6D3204656
:1014B000FEBD0220FEBD00009C010020A61D0020F4
:1014C00010B511F06BFF0F480088002804D10122ED
:1014D00080210D4802F0D2FE0C480078002808D088
:1014E000012809D002280AD0032801D101F0E2FF27
:1014F00010BD01F0CFFF10BD02F004F810BD01F0E7
:10150000A1FF10BDEE00002000040050E600002006
:1015100001780448024A4368D154012101707047A0
:101520004F160020FC00002010B5034813F0BCF952
:1015300002490020087010BD11150008FC000020B1
:1015400070B52848017801290ED100240470264A7C
:101550004168535C012B08D00D2B09D00A2B07D012
:101560007F2939D0491C416070BD4460082035E0B6
:101570000029F9D0545444601C480078012804D054
:10158000194D2878412818D103E0174811F0A8FD1B
:1015900070BD6878542810D11548AD1C016806222A
:1015A0002846FEF767FE002807D111494868401910
:1015B0000278002A01D1096988470E4D2878002851
:1015C00006D00DA00CF030FB0028FAD12C7070BDB5
:1015D00005480EF01DF9F9E74460062010F052FEB0
:1015E00070BD0000FC0000204F160020E500002028
:1015F000A84B0108DE0000200A0D4F4B0D0A000029
:1016000070B50D4B00290ED104780C4D63400024B9
:10161000DE0702D05B086B4000E05B08641CE4B2AC
:10162000082CF5D3401C0C46491E89B2002CEBD186
:101630001370180A507070BDFFFF000001A0000079
:101640003EB50D4C6946A27A0A70227F8A70C87036
:10165000E06B0CF0E9F90190606C0290E07F694664
:101660004870207E09F02EFF218D606C4143081ADE
:10167000A16E4018A0663EBD9C010020FFB5044647
:1016800089B0002003900890069021891646002911
:1016900015D00190626904922069002A04D00029C3
:1016A0000FD00A4692B20392002900D00E46E1689C
:1016B000884215D3039A61688018081A11E0022045
:1016C000E7E722686568135C471CAF4202D3451BFD
:1016D0006D1C00E03D46525D1202921C9A18E1E733
:1016E00000200199751807950C994D43854201D248
:1016F000002102E00799FEF7FBFCC8B2019988427D
:1017000008D9217FCA0700D106980690880701D51D
:10171000019800E00698002E6AD00499491908182B
:101720006168884264D8002798E0039808186168C7
:10173000884200D3401A20612189002911D12168F3
:101740000E546168401C814200D8401A2268310A58
:1017500011546168401C814200D8401A6169891C9B
:10176000616161680D1AB54200D33546B5420DD0AE
:10177000B54202D2217F002908D0002D6AD0217FF6
:10178000CA0730D02189002913D019E039460A9AB6
:1017900071438918226810182A46FEF740FD6069D7
:1017A0004019606107990895002089B2751B039163
:1017B00040E02368FF22811E5A542168401E0A54CB
:1017C0006069401960610020089021893546002930
:1017D0002AD1206805702168280A487061690220B2
:1017E000891C616120E089071ED52189002902D06A
:1017F00000200DB0F0BD2168821E8D542268290A98
:10180000431ED15439460A9A714389182268101828
:101810002A46FEF704FD6069401960610895A069D9
:10182000751B401CA061D4E70199691889B2039126
:1018300000212161002D0DD0089A0A993B46891894
:1018400022687343101859182A46FEF7E8FC6069AD
:1018500040196061A069401C7F1CA0610C9821693F
:10186000874200D261E7019808186168884200D376
:10187000401A21684018BCE710B5029C01600021A5
:10188000C160016141614260816103810477A00709
:1018900003D5002B01D0481E10BD002010BD000054
:1018A000F0B503890022002B09D0002300240C800E
:1018B0004469002C58D00289002A02D00DE002238E
:1018C000F4E7C26804684668A55C571CB74200D3B9
:1018D000921B521CA25C1202AA1894B20C80027FC6
:1018E000D50729D0920727D4204A944202D10289F1
:1018F000002A0AD0C468026994421DD90289002ACC
:101900001AD045682C1B944216D24468C2684569B7
:10191000A21AAA1A42610022C2600289002A0AD1D0
:101920000268012C157802D86442641C00E001248E
:10193000125D1202AA180A80C5684468EA18A24219
:1019400000D3121B06680F8892194669FF18F61B10
:10195000466106D009886918C918A14200D3091B3D
:10196000C1608169491E81611046F0BDFFFF000022
:10197000F0B503890022002B0AD0002700230B803A
:101980004369002B42D00389C268002B02D00DE0CE
:101990000227F3E705684468531CAE5CA342134674
:1019A00000D31B1B5B1CEB5C1B02F3189CB20C806E
:1019B000037FDD0723D09B0721D4154B9C4202D126
:1019C0000389002B0AD0C46803699C4217D9038994
:1019D000002B14D045682C1B9C4210D200221B0403
:1019E0001B0C0BD143680468012B02D85B425B1CC3
:1019F00000E00123E35C24781B021B190B80D11942
:101A00004268914200D3891A00680A181046F0BD56
:101A1000FFFF0000F1B584B00020019069460290FC
:101A20000870204F04997C78002939D0012560087E
:101A3000E1072ED041001C48405A010A6A460020A6
:101A400001AB10702E4686400E4204D01678985591
:101A50001678761C1670401CC0B20828F2D3117894
:101A6000002909D00020491E11F034FD01A9085CAD
:101A7000E100401804990870641CE4B2072C00D9F6
:101A8000002468460078002807D07C70002005B04C
:101A9000F0BD41000448415CD0E778788442C6D16B
:101AA0000320F4E788010020641B0020FFB500201C
:101AB00085B0009005460646019000247700069800
:101AC000C15B0120A04001422AD028190C210390BB
:101AD000484307990958002922D00799411808203E
:101AE00002910856021100070117059840B209F04B
:101AF00004FF002814D00298407A010108980818C1
:101B0000C068002804D00198401CC0B2019007E0D2
:101B1000009A0E99039888540098401CC0B2009017
:101B2000641CE4B2102CCAD31035761CEDB2F6B2A8
:101B3000482DC2D30F9901980870009809B0F0BDE4
:101B400030B587B014216846FEF782FB0320019070
:101B50000020029003204003104C0090E06A012115
:101B60000843E062E06A08400590052069460007E6
:101B700002F0C2FAE06A40084000E062606B0125B2
:101B8000AD052843606301F07BFF01F089FF01F0A0
:101B90007FFF606BA843606307B030BD0010024058
:101BA00010B512F023FE10BD10B5046863608368A1
:101BB000102B036803D099600068C26010BD9A6062
:101BC0000068C16010BD10B504F09EFD10BD00009E
:101BD000F0B5A9B0A449002018AA08C98400401C87
:101BE00013511128F9DB0025A04C00950195A11C8B
:101BF0000820199B189A11F04DFD1A98E0601E9963
:101C00001D98019100902146183110201C9B1B9AB1
:101C100011F040FD22990191219800902146283130
:101C20001020209B1F9A11F035FD269925980191CF
:101C30000090214638311020249B239A11F02AFD70
:101C400000952146019510310820289B279A11F014
:101C500021FD854905AA5C31002008C98600401C89
:101C600093511328F9DB0220694608720598000E8B
:101C700001D0012100E000216846017302A806F0AE
:101C8000B9F9162168460172059801146846017376
:101C900002A806F0AFF90598744E00124036307570
:101CA00005980127C0B201287ED0657060780128B0
:101CB00000D0002006F078FC0720694608720698DC
:101CC000000E00D00120087302A806F093F90698D0
:101CD0000002000E012868D0257069460D72069832
:101CE000000A087302A806F085F90698C0B2012818
:101CF0007ED035730A27684607720798039002A8BA
:101D000006F078F9594D2C3D2878002871D02078BC
:101D100000286ED0684607725548017868460174FD
:101D200002A806F067F92978102000297ED02178D2
:101D300000297BD0694608724E480068039002A8CB
:101D400006F058F929781120002970D0217800294F
:101D50006DD06946087248480068039002A806F0F2
:101D600049F91221684601720B98039002A806F007
:101D700041F91321684601720C98039002A806F0FD
:101D800039F90321684601720D98039002A806F004
:101D900031F93A490E9808600F983949000C0880CB
:101DA0000F983849000A01E04BE04CE008700F98AA
:101DB000F072109868612D481199083801601299E5
:101DC000314A090C11801299304A090A117012998E
:101DD000017113982E49000E087013982D49000CBC
:101DE000087013982C49000A08702C49139801E0D8
:101DF0002BE02CE0087014982949000E0870149804
:101E00002849000CA8711498000A68711498087089
:101E100015982549000C087015982449000A087087
:101E20002349159808701698286101E014E017E01E
:101E3000179820490002000C08801798287129B0D3
:101E4000F0BD677032E7277047E7377352E769469E
:101E50000F720898087463E76946087209986DE77D
:101E6000694608720A9878E70400080830010020E3
:101E7000B3010020E4010020E801002084000020DC
:101E8000EC000020E70000207E000020730000200E
:101E9000D8000020D9000020DA000020DB0000205C
:101EA000E6000020DC000020E9000020E000002027
:101EB000E8000020EE00002010B5E9B0FE49002047
:101EC0006A4608C98400401C13516928F9DB009850
:101ED000FA49000E08700098F94A000C107000983A
:101EE000030AF8480370009B4370019B1B0E83702C
:101EF000019B1B0CC370019B1B0A0371019B437167
:101F0000029B1B0E8371029B1B0CC371029B1B0A5D
:101F10000372029B4372039B1B0E8372039B1B0C79
:101F2000C372039B1B0A0373039B4373049B1B0E27
:101F30004B70049B1B0C5370049B1B0A8373049B04
:101F4000C373059B1B0E0374059B1B0C4374059BFD
:101F50001B0A8374059BC374069B1B0E0375069BAB
:101F60001B0C4375069B1B0A8375069BC375079B59
:101F70001B0E0376079B1B0C4376079B1B0A83767D
:101F8000079BC376089B1B0E8B70089B1B0C9370E2
:101F9000089B1B0A0377089B4377099B1B0E8377DB
:101FA000099B1B0CC3770998030AC64820300370AD
:101FB000099B43700A9B1B0E83700A9B1B0CC3700A
:101FC0000A9B1B0A03710A9B43710B9B1B0E8371B7
:101FD0000B9B1B0CC3710B9B1B0A03720B9B437265
:101FE0000C9B1B0ECB700C9B1B0CD3700C9B1B0A09
:101FF00083720C9BC3720D9B1B0E03730D9B1B0CFA
:1020000043730D9B1B0A83730D9BC3730E9B1B0EA7
:1020100003740E9B1B0C43740E9B1B0A83740E9B54
:10202000C3740F9B1B0E03750F9B1B0C43750F9BFB
:102030001B0A83750F9BC375109B1B0E0B71109BA6
:102040001B0C1371109B1B0A0376109B4376119B8C
:102050001B0E8376119B1B0CC376119B1B0A037707
:10206000119B4377129B1B0E8377129B1B0CC3772C
:102070001298030A934840300370129B4370139BDD
:102080001B0E8370139B1B0CC370139B1B0A0371E5
:10209000139B4371149B1B0E4B71149B1B0C5371B0
:1020A000149B1B0A8371149BC371159B1B0E037237
:1020B000159B1B0C4372159B1B0A8372159BC372E5
:1020C000169B1B0E0373169B1B0C4373169B1B0A5C
:1020D0008373169BC373179B1B0E0374179B1B0CF8
:1020E0004374179B1B0A8374179BC374189B1B0EA6
:1020F0008B71189B1B0C9371189B1B0A0375189B03
:102100004375199B1B0E8375199B1B0CC375199B7B
:102110001B0A0376199B43761A9B1B0E83761A9B28
:102120001B0CC3761A9B1B0A03771A9B43771B9BD6
:102130001B0E83771B9B1B0CC3771B98030A6148FC
:10214000603003701B9B43701C9B1B0ECB711C9B50
:102150001B0CD3711C9B1B0A83701C9BC3701D9BA3
:102160001B0E03711D9B1B0C43711D9B1B0A83716E
:102170001D9BC3711E9B1B0E03721E9B1B0C437287
:102180001E9B1B0A83721E9BC3721F9B1B0E037335
:102190001F9B1B0C43731F9B1B0A83731F9BC373E3
:1021A000209B1B0E0B72209B1B0C1372209B1B0A87
:1021B0000374209B4374219B1B0E8374219B1B0C77
:1021C000C374219B1B0A0375219B4375229B1B0E25
:1021D0008375229B1B0CC375229B1B0A0376229BD3
:1021E0004376239B1B0E8376239B1B0CC376239B7A
:1021F0001B0A0377239B4377249B1B0E4B72249B64
:102200001B0C5372249B1B0A8377249BC37725984E
:10221000030E2C4880300370259B1B0C4370259BBC
:102220001B0A8370259BC370269B1B0E0371269B84
:102230001B0C4371269B1B0A8371269BC371279B32
:102240001B0E0372279B1B0C4372279B1B0A837276
:10225000279BC372289B1B0E8B72289B1B0C9372AF
:10226000289B1B0A0373289B4373299B1B0E8373B4
:10227000299B1B0CC373299B1B0A0374299B437462
:102280002A9B1B0E83742A9B1B0CC3742A9B1B0A5C
:1022900003752A9B43752B9B1B0E83752B9B1B0C75
:1022A000C3752B9B1B0A03762B9B43762C9B1B0E23
:1022B000CB722C9B1B0C07E0D8000808561200209C
:1022C0007412002083120020D3722C9B1B0A837689
:1022D0002C9BC3762D9B1B0E03772D9B1B0C4377EA
:1022E0002D9B1B0A83772D9BC3772E98030EFE48E8
:1022F00003702E9B1B0C43702E9B1B0A83702E9B1E
:10230000C3702F9B1B0E03712F9B1B0C43712F9BC4
:102310001B0A83712F9BC371309B1B0E0B73309B69
:102320001B0C1373309B1B0A0372309B4372319B4F
:102330001B0E8372319B1B0CC372319B1B0A0373F0
:10234000319B4373329B1B0E8373329B1B0CC373F5
:10235000329B1B0A0374329B4374339B1B0E8374A2
:10236000339B1B0CC374339B1B0A0375339B437550
:10237000349B1B0E4B73349B1B0C5373349B1B0AF7
:102380008375349BC375359B1B0E0376359B1B0CE5
:102390004376359B1B0A8376359BC376369B1B0E93
:1023A0000377369B1B0C4377369B1B0A8377369B40
:1023B000C3773798030ECC4820300370379B1B0C33
:1023C0004370379B1B0A8370379BC370389B1B0E6F
:1023D0008B733899090C91733899090A01713899EE
:1023E00041713999090E81713999090CC171399975
:1023F000090A0172399941723A99BC4B090E8172EE
:102400003A99090CC1723A99090A01733A994173D0
:102410003B99090E81733B99090CC1733B99090AD9
:1024200001743B9941743C98000E18703C98010C63
:10243000AF4801703C99090A41703C9981703D99FF
:10244000090EC1703D99090C01713D99090A41714C
:102450003D9909060A0FA7490A703D9A1407A64A32
:10246000240F14703E9C240E5C703E9C240CC4719E
:102470003E9C240A04723E9C44723F9C240E84724B
:102480003F9C240CC4723F9C240A04733F9C240686
:10249000240F4C703F9C2407240F5470409C240E42
:1024A0009C70409C240C8473409C240AC473409C00
:1024B0000474419C240E4474419C240C8474419CFB
:1024C000240AC474419C2406240F8C70419C240768
:1024D000240F9470429C240EDC70429C240C4475A2
:1024E000429C240A8475429CC475439C240E047645
:1024F000439C240C4476439C240A8476439C240603
:10250000240FCC70439C2407240FD470449C240EC9
:102510001C71449C240C0477449C240A4477449CFA
:102520008477459C240EC4774598040C704820306D
:102530000470459C240A4470459C2406240F0C71A9
:10254000459C2407240F1471469C240E5C71469C04
:10255000240CC470469C240A0471469C4471479C18
:10256000240E8471479C240CC471479C240A047275
:10257000479C2406240F4C71479C2407240F547158
:10258000489C240E9C71489C240C8472489C240A0C
:10259000C472489C0473499C240E4473499C240CC7
:1025A0008473499C240AC473499C2406240F8C71AB
:1025B000499C2407240F94714A9C240EDC714A9C88
:1025C000240C44744A9C240A84744A9CC4744B9C12
:1025D000240E04754B9C240C44754B9C240A847572
:1025E0004B9C2406240FCC714B9C2407240FD471E0
:1025F0004C9C240E1C724C9C240C04764C9C240A8B
:1026000044764C9C84764D9C240EC4764D9C240CC0
:1026100004774D9C240A44774D9C2406240F0C72A9
:102620004D9C2407240F14724E9C240E5C724E9C09
:10263000240CC4774E98040A2D48403004704E9CF8
:1026400044704F9C240E84704F9C240CC4704F9C8B
:10265000240A04714F9C2406240F4C724F9C2407BB
:10266000240F5472509C240E9C72509C240C847134
:10267000509C240AC471509C0472519C240E4472D4
:10268000519C240C8472519C240AC472519C2406CF
:10269000240F8C72519C2407240F9472529C240E98
:1026A000DC72529C240C4473529C240A8473529C06
:1026B000C473539C240E0474539C240C4474539C84
:1026C000240A8474539C2406240FCC72539C240740
:1026D000240FD472549C240E1C73549C240C047537
:1026E000549C240A447509E023130020651200203D
:1026F000551300203812002047120020549C847586
:10270000559C240EC475559C240C0476559C240AB3
:102710004476559C2406240F0C73559C2407240FE3
:102720001473569C240E5C73569C240CC476569CE1
:10273000240A0477569C4477579C240E8477579C30
:10274000240CC4775798040A23480470579C240625
:10275000240F4C73579C2407240F5473589C240E49
:102760009C73589B1B0C8370589B1B0AC370589B0F
:102770000371599B1B0E4371599B1B0C8371599B11
:102780001B0AC37159980006000F887359980007F7
:10279000000F907311485A9901605B9941605C99F0
:1027A00081605D99C1605E9901615F994161609945
:1027B00081616199C1616299016263994162649921
:1027C00081626599C16266990163679941636899FD
:1027D000816369B010BD0000B5130020C013002054
:1027E00030B5ADB0FE4900206A4608C98400401CDF
:1027F00013512D28F9DB0098FA49000E0870009853
:10280000000C48700098000A88700098C870019801
:10281000000E08710198020CF3480270019A120A26
:102820004270019A8270029A120EC270029A120CC1
:102830000271029A1204130FEC4A1370029B1B05DB
:102840001C0FEB4B1C70EB4C029D2570039D2D0E55
:10285000CD71039D2D0C0D72039D2D0A4D72039DAC
:102860008D72049D2D0ECD72049D2D0CC571049D9D
:102870002D0A0572049D4572059D2D0E8572059DDC
:102880002D0CC572059D2D042D0F5570059D2D0530
:102890002D0F5D70059D6570069D2D0E8D73069D37
:1028A0002D0CCD73069D2D0A0D74069D4D74079D4C
:1028B0002D0E8D74079D2D0C8573079D2D0AC573F4
:1028C000079D0574089D2D0E4574089D2D0C85747B
:1028D000089D2D042D0F9570089D2D052D0F9D70C1
:1028E000089DA570099D2D0E4D75099D2D0C8D75AA
:1028F000099D2D0ACD75099D0D760A9D2D0E4D76EB
:102900000A9D2D0C45750A9D2D0A85750A9DC57574
:102910000B9D2D0E05760B9D2D0C45760B9D2D04E4
:102920002D0FD5700B9D2D052D0FDD700B9DE570C6
:102930000C9D2D0E0D770C9D2D0C4D770C9D2D0AA9
:102940008D770C9DCD770D990D0EA64920310D7018
:102950000D9D2D0C05770D9D2D0A45770D9D8577D5
:102960000E9D2D0EC5770E98050C9F4820300570E2
:102970000E9D2D042D0F15710E9D2D052D0F1D7112
:102980000E9D25710F9D2D0ECD700F9D2D0C0D717F
:102990000F9D2D0A4D710F9D8D71109D2D0ECD71C6
:1029A000109D2D0CC570109D2D0A0571109D45714F
:1029B000119D2D0E8571119D2D0CC571119D2D043C
:1029C0002D0F5571119D2D052D0F5D71119D657197
:1029D000129D2D0E8D72129D2D0CCD72129D2D0A01
:1029E0000D73129D4D73139D2D0E8D73139D2D0C24
:1029F0008572139D2D0AC572139D0573149D2D0EAE
:102A00004573149D2D0C8573149D2D042D0F957108
:102A1000149D2D052D0F9D71149DA571159D2D0ED5
:102A20004D74159D2D0C8D74159D2D0ACD74159D1D
:102A30000D75169D2D0E4D75169D2D0C4574169D0C
:102A40002D0A8574169DC574179D2D0E0575179D4D
:102A50002D0C4575179D2D042D0FD571179D2D0536
:102A60002D0FDD71179DE571189D2D0E0D76189DAA
:102A70002D0C4D76189D2D0A8D76189DCD76199DBD
:102A80002D0E0D77199D2D0C0576199D2D0A457675
:102A9000199D85761A9D2D0EC5761A9D2D0C0577EC
:102AA0001A9D2D042D0F15721A9D2D052D0F1D72C7
:102AB0001A9D25721B9D2D0ECD771B990D0C494932
:102AC00040310D701B9D2D0A4D701B9D8D701C9DFE
:102AD0002D0ECD701C9D2D0CC5771C98050A424803
:102AE000403005701C9D45701D9D2D0E85701D9DEF
:102AF0002D0CC5701D9D2D042D0F55721D9D2D058E
:102B00002D0F5D721D9D65721E9D2D0E8D711E9D7A
:102B10002D0CCD711E9D2D0A0D721E9D4D721F9D97
:102B20002D0E8D721F9D2D0C85711F9D2D0AC57157
:102B30001F9D0572209D2D0E4572209D2D0C8572C6
:102B4000209D2D042D0F9572209D2D052D0F9D721A
:102B5000209DA572219D2D0E4D73219D2D0C8D73F1
:102B6000219D2D0ACD73219D0D74229D2D0E4D7436
:102B7000229D2D0C4573229D2D0A8573229DC573C0
:102B8000239D2D0E0574239D2D0C4574239D2D042E
:102B90002D0FD572239D2D052D0FDD72239DE5721E
:102BA000249D2D0E0D75249D2D0C4D75249D2D0AF3
:102BB0008D75249DCD75259D2D0E0D76259D2D0C95
:102BC0000575259D2D0A4575259D8575269D2D0E1E
:102BD000C575269D2D0C0576269D2D042D0F0BE029
:102BE0007C0208081A140020921400200B14002004
:102BF00083140020FC1300201573269D2D052D0F36
:102C00001D73269D2573279D2D0ECD76279D2D0C9A
:102C10000D77279D2D0A4D77279D8D77289D2D0EA9
:102C2000CD772899090CC1762899090A0177289946
:102C300041772999090E81772999090CC17729983B
:102C40000004000F507329980005000F587329984D
:102C500060732A98010E144881702A99090CC1707A
:102C60002A99090A01712A9941712B99090E8171DA
:102C70002B98010C0D4881702B99090AC1702B9972
:102C800001712C99090E41712C99090C81712C98B4
:102C90000004000F90732C980005000F98732C9877
:102CA000A0732DB030BD00007A140020F214002073
:102CB000FEB5022069460870684605F01FF9002835
:102CC00002D097A00AF0B0FF6846007916210406EA
:102CD0006846017005F012F9002802D090A00AF0B1
:102CE000A3FF684604214156934E14200904305630
:102CF0002143000237460843403F79783446014378
:102D00006C3CA0788D4D8200A950401CA07007211A
:102D10006846017005F0F2F8002802D080A00AF0A1
:102D200083FF6846397800790F04000607430021C5
:102D30006846017005F0E2F8002802D078A00AF099
:102D400073FF68460079317B000238430143A07865
:102D50000A278200A950401CA0706846077005F041
:102D6000CDF8002802D06EA00AF05EFFA07801998D
:102D70008200A950401CA0706846077005F0BEF89C
:102D8000002802D066A00AF04FFF6846017AA078BA
:102D90008200A950401CA07010216846017005F007
:102DA000ADF8002802D05EA00AF03EFFA07801999D
:102DB0008200A950401CA07011216846017005F0E6
:102DC0009DF8002802D056A00AF02EFFA0780199A5
:102DD0008200A950401CA07012216846017005F0C5
:102DE0008DF8002802D04EA00AF01EFFA0780199AD
:102DF0008200A950401CA07013216846017005F0A4
:102E00007DF8002802D046A00AF00EFFA0780199B4
:102E10008200A950401CA07003216846017005F093
:102E20006DF8002802D03EA00AF0FEFEA0780199BD
:102E30008200A950401CC0B2414982000968A950D3
:102E40004049414A09881278090412021143F27A72
:102E5000401CC0B211438200A950401CC0B2820085
:102E60006169A950401CC0B23349830048390A68DF
:102E7000EA50364A364B12881B7812041B02097935
:102E8000401C1A43C0B20A4381006A503149324A99
:102E900009781278090612041143304A401C12784E
:102EA000C0B2120211432E4A127811438200A95077
:102EB0002C49A2790978401C090612041143627951
:102EC000C0B212021143284A127811438200A9505D
:102ED0002649274A09781278090412021143254A23
:102EE000401C1278C0B211438200A950401CC0B2ED
:102EF00082002169A950204922790988401C0902D1
:102F0000C0B211438200A950401CC2B2A270132A61
:102F100003D80A49194800F0BFF80020A070FEBD90
:102F20004C4F52414D414320535441545553204539
:102F300052524F520A0D000070010020D01600209E
:102F400084000020EC000020E70000207E0000202C
:102F500073000020D8000020D9000020DA000020F3
:102F6000DB000020E6000020DC000020E90000205B
:102F7000E0000020E8000020EE00002060000808CB
:102F800010B5164C0022A11C082011F079F900217F
:102F90000120E26811F074F9214600221831102056
:102FA00011F06EF9214600222831102011F068F945
:102FB000214600223831102011F062F9214600220A
:102FC0001031082011F05CF92C3CE27804490548E6
:102FD00000F062F80020E07010BD00003001002019
:102FE000501700200400080870B50D4DEFF3108451
:102FF00072B600F0DDFF0A4E7836284600F090FFEA
:10300000002804D084F3108806A00AF00DFE2D1DC0
:10301000B542F2D300F098FF84F3108870BD000031
:10302000600008086572726F7220696E2045455015
:10303000524F4D204572617365206F7065726174E7
:10304000696F6E0A0D00000070B50546EFF310843D
:1030500072B600F0ADFF284600F062FF002804D0F1
:1030600084F3108803A00AF0DFFD00F06DFF84F305
:10307000108870BD6572726F7220696E2045455070
:10308000524F4D204572617365206F706572617497
:10309000696F6E0A0D000000F7B517460026054659
:1030A000EFF3108472B600F083FF0DE00198B100D9
:1030B00042582946022000F051FF00280BD084F32B
:1030C000108806A00AF0B0FDBE42EFDB00F03CFF26
:1030D00084F31088FEBD2D1D761CF5E76572726FB6
:1030E0007220696E20454550524F4D2057726974C9
:1030F00065206572726F720D0000000010B501202E
:1031000000F0EEFF022000F0EBFF10BD10B5042030
:1031100000F0E6FF082000F0E3FF10BD10B510201E
:1031200000F0DEFF202000F0DBFF402000F0D8FFA1
:10313000802000F0D5FFFF20013000F0D1FF0120FA
:10314000400200F0CDFF0120800200F0C9FF012005
:10315000C00200F0C5FF13494869C00415D51248E4
:10316000007800280CD0114A1278002A08D0104AA2
:103170001278012A01D1012802D00E4A01201060E4
:1031800001200003486100F0A7FF0120400300F088
:10319000A7FF0120800300F0A3FF0120C00300F07F
:1031A0009FFF10BD00040140E600002063000020E6
:1031B000E00000208800002000B50B4887B0C26AFC
:1031C00002210A43C262C06A0840059001200190B2
:1031D000002002900320039040200090694603489D
:1031E00000F08AFF07B000BD00100240000400504C
:1031F000FEE7000010B5084900224A6107494B6804
:103200004C1523434B604B68082423434B60C00993
:10321000C001026010BD0000F40400200020024044
:1032200010B5214A00219069C305204804D54169A1
:10323000022319434161911593699B0505D54369A3
:103240000124234343616302194393695B0505D558
:103250004369082423434361E301194393691B0530
:1032600005D54369042423434361630219439369E9
:103270009B0405D54369102423434361630219432A
:1032800093699B0304D5446920231C43446119437B
:103290009369DB0305D54369402423434361A002BE
:1032A0000143916110BD000000200240F4040020A1
:1032B00070B5054600F0E8FF0646184C0AE0681CA9
:1032C00008D0002D04D000F0DFFF801BA84201D9F8
:1032D000032070BDA069C007F1D1A069800701D5A6
:1032E0000220A061A069C00511D4A06980050ED498
:1032F000A06940050BD4A069000508D4A06980042A
:1033000005D4A069800302D4A069C00303D5FFF7E8
:1033100087FF012070BD002070BD0000002002402A
:1033200010B5044600F0BAFE0849002011C1012082
:1033300008600749054800F04DFE002803D005A0AD
:103340000AF072FCFBE700F081FE10BDF8030020DC
:10335000200000206572726F7220696E20457261D4
:103360007365206F7065726174696F6E0A0D00007D
:1033700070B50D46044600F091FE21462A46022013
:1033800000F06EFE002803D003A00AF04DFCFBE71E
:1033900000F05CFE70BD00006572726F7220696E95
:1033A000205772697465206F7065726174696F6E01
:1033B0000A0D000030B593B02049002002AA08C9C8
:1033C0008400401C13511128F9DB00241C4D00948B
:1033D0000194A91C0820039B029A10F05BF9049841
:1033E000E86008990798019100902946183110204B
:1033F000069B059A10F04EF90B980C9901910090DC
:103400002946283110200A9B099A10F043F9109997
:103410000F98019100902946383110200E9B0D9A8B
:1034200010F038F929460094019410310820129BBD
:10343000119A10F02FF913B030BD0000009101086F
:103440003001002000B587B014216846FCF700FF6A
:103450000D48C26A02210A43C262C06A6A46084035
:1034600005900A4801900020C90202900091084886
:1034700003F038F800220321072000F07FFF072027
:1034800000F072FF07B000BD0010024000002110E4
:103490000004005000B585B014216846FCF7D8FE42
:1034A00001216A460903024803F01CF805B000BD7B
:1034B0000004005000B587B014216846FCF7C8FE30
:1034C0000D48C26A02210A43C262C06A6A460840C5
:1034D00005900A4801900020C90202900091084816
:1034E00003F000F800220321072000F047FF072027
:1034F00000F03AFF07B000BD0010024000001110BC
:103500000004005000B587B014216846FCF7A0FE07
:103510000D48C26A02210A43C262C06A6A46084074
:1035200005900A4801900020C902029000910848C5
:1035300002F0D8FF00220321072000F01FFF072020
:1035400000F012FF07B000BD001002400000311073
:10355000000400500649800009580648091803D0A5
:10356000C14203D0002070470120704702207047FD
:10357000FC560108702FFCFF10B5094A0021CB0052
:10358000D458844207D89B189B68834203D9C8004B
:103590008018007910BD491CC9B21529EFD3FEE788
:1035A0002C4A010830B593B038216846FCF750FE2C
:1035B00001250024059508200A940090684601F032
:1035C000E1F9002801D0FFF713FE1B491B4812C088
:1035D00004601B4984604160083802F093F90028B8
:1035E00001D0FFF705FE1421144802F0AEF80C20BC
:1035F00010900E9400220EA90F9511940F4802F01E
:10360000DBF8002801D0FFF7F3FD00210B4802F0A2
:10361000A7F9002801D0FFF7EBFD0A4CA0680228AB
:10362000FCD10021054802F0BFF9044802F054F92A
:10363000606813B030BD0000000801409C04002009
:10364000FFFF00002C000020884201D1C8B201E039
:10365000401EC0B240B27047F8B50546044640353A
:10366000287D0026012808D001202875206881685F
:103670008907890F01290ED101E00220F8BD0168F8
:10368000C90708D0A06D20210843A06501260020AD
:1036900028753046F8BDA16DFF2201329143022208
:1036A0001143A165C1688907890F0091C168890824
:1036B0008900C1602068816892071143816000F031
:1036C000E3FD07460EE000F0DFFDC01B0A2809D924
:1036D000A06D0221884310210843A06500202875B1
:1036E0000120F8BD206880680028ECDB2068C168F4
:1036F000009A1143C160A06D80088000401CA06545
:10370000C5E70000F8B506460D464036317D012973
:103710000DD00121317501688A68520709D5816D84
:10372000202211438165002030750120F8BD022060
:10373000F8BD174B6A68D80547109A42154C8A6A3B
:103740002B6812D05B035B0B1A438A62296849031A
:1037500005D5A1680143A1600A20FDF70BFD28688B
:10376000800312D5A06838430EE05B035B0B9A43DD
:103770008A622968490302D5A1688143A16028684B
:10378000800302D5A068B843A06000203075F8BD62
:1037900001100000002701400068006C7047000025
:1037A00070B5040006D0A06D2646002540360028DE
:1037B00002D006E0012070BDE5653575204600F0B9
:1037C000D1F8A06DC00603D421688868400705D5EC
:1037D000A06D10210843A0653575EBE7A06DFF22B1
:1037E0000132904302221043A06588688207920F3D
:1037F0005A48012A02D10A68D2072BD103236268F2
:103800009B079A4205D05B429A4202D05B009A42E3
:1038100009D10A69920092080A6121680A696368FD
:103820001A430A610CE00A69920092080A618168F1
:103830000F22920491438160816862681143816024
:103840002168CA6818239A43CA602168CA68A368B5
:103850001A43CA60816801225206914381608168DF
:10386000228F52061143816020688168C90004D408
:10387000816801221207114381602068C168384ABB
:103880001140C1602169E068022923D0002108436A
:10389000216A226B4903520011430843616B0843BC
:1038A000A16989030843E169C90308432168CA681B
:1038B0001043C860A06A0146FF39C23905D0E16AE9
:1038C00008432168CA681043C860606A0121012862
:1038D00002D00BE00421DAE7206A002823D0A06D93
:1038E00020221043A065E06D0843E065206C0128AC
:1038F00020681FD00169C90703D001694908490040
:10390000016120684169C908C900416120684169B5
:10391000E26B11434161E565A06D80088000401CA9
:10392000A065002070BD2068C26801231B041A43F3
:10393000C260DBE70269FF239B009A4302612068B3
:103940000269636CE66C1A43A36C33431A43026149
:10395000206802690A430261D3E7000000270140A2
:103960001902FEFF7047F8B5044640692546403508
:103970000E4608280BD02068C068C00709D0A06D8B
:1039800020210843A065002028750120F8BD0827E4
:1039900000E00C2700F078FC009011E0701C0FD0C4
:1039A000002E05D000F070FC0099401AB04207D9F3
:1039B000A06D04210843A065002028750320F8BDF0
:1039C000206800683842E9D0A06D0121490208430F
:1039D000A0652068C16809058A0F0C21002A1AD148
:1039E000226A002A17D10268120714D58268530789
:1039F0000122002B08DB43688B434360A06D130258
:103A000098431043A06506E0A06D20231843A065ED
:103A1000E06D1043E065A069002801D120680160D5
:103A20000020F8BD70B50446216800208968490768
:103A300021D425464035297D01291CD00121297535
:103A4000E169012904D02046FDF7A6FB002811D129
:103A5000A16D0A4A1140FF2201321143A1650021E4
:103A6000E165297522681C21116021688A68042398
:103A70001A438A6070BD022070BD0000FEF1FFFF96
:103A800002484168490849004160704700580140B8
:103A90000248416804229143416070470058014048
:103AA000024841680222914341607047005801403A
:103AB00070B50024024620325179022903D0042136
:103AC000C16301243CE001680B680E25AB430B6029
:103AD00001680B685B085B000B601A4B0168994238
:103AE00001D1012121E0174B1433994201D110215A
:103AF0001BE0144B2833994201D1891515E0114B75
:103B00003C33994201D189140FE00E4B5033994256
:103B100002D10121090408E00A4B6433994202D121
:103B20000121090501E001210906064B083B596006
:103B30000121517100211171816B002900D088474A
:103B4000204670BD08000240F8B504469D48016853
:103B50009C4A9C4E9B4F0832206813041C36303719
:103B6000904201D108221EE0B04201D180221AE029
:103B7000B84202D10122D20215E0924A4432904268
:103B800002D10122D2030EE08E4A5832904201D176
:103B90001A4608E08B4A6C32904202D10122D205CB
:103BA00001E00122D20625461140203500293BD0F4
:103BB0000168090738D501680822914301608149ED
:103BC00020680831884201D108201EE0B04201D1AE
:103BD00080201AE0B84202D10120C00215E07949E4
:103BE0004431884202D10120C0030EE075495831AA
:103BF000884201D1184608E072496C31884202D1EE
:103C00000120C00501E00120C0066E494860E06B5C
:103C100001210843E0630420687100202871616B72
:103C2000002901D02046884766480168654A206817
:103C300008321315904201D104221EE0B04201D196
:103C400040221AE0B84201D11A4616E05D4A4432D9
:103C5000904202D1012292030FE05A4A5832904218
:103C600002D10122920408E0564A6C32904202D1FD
:103C70000122920501E001229206114238D001682A
:103C8000490735D50168890603D4026804218A43AF
:103C900002604C4920680831884201D104201EE0AE
:103CA000B04201D140201AE0B84201D1184616E0D6
:103CB00044494431884202D1012080030FE0414948
:103CC0005831884202D10120800408E03D496C311E
:103CD000884202D10120800501E001208006394997
:103CE000486005206871216B002901D02046884773
:103CF00034480168334A206808325315904201D194
:103D000002221EE0B04201D120221AE0B84201D1C5
:103D10001A4616E02B4A4432904202D10122520345
:103D20000FE0284A5832904202D10122520408E0A2
:103D3000244A6C32904202D10122520501E0012254
:103D4000520611423CD00168890739D501688906BD
:103D500003D401680222914301601A4920680831A6
:103D6000884201D102201EE0B04201D120201AE099
:103D7000B84201D1184616E012494431884202D1B6
:103D8000012040030FE00F495831884202D1012041
:103D9000400408E00B496C31884202D10120400503
:103DA00001E00120400607494860E06BE063012024
:103DB000687100202871E16A002901D020468847F7
:103DC000F8BD00000000024070B5002805D0034691
:103DD00020335979002902D003E0012070BD002171
:103DE000197102215971046822683749C5680A406F
:103DF0008168466929430569354329438569294313
:103E0000C5692943056A2943114321602F492F4C75
:103E100002687831A24206D18A6A120912018A62C6
:103E20008A6A406849E0294C1434A24207D18A6A60
:103E3000F024A2438A628A6A406800013DE0234C74
:103E40002834A24208D18A6A0F242402A2438A623B
:103E50008A6A4068000230E01C4C3C34A24208D11F
:103E60008A6A0F242403A2438A628A6A4068000394
:103E700023E0164C5034A24208D18A6A0F2424044D
:103E8000A2438A628A6A8088000416E00F4C643478
:103E9000A24208D18A6A0F242405A2438A628A6A50
:103EA0008088000509E08A4209D18A6A0F24240625
:103EB000A2438A628A6A0079000602438A6201206C
:103EC0005871002070BD00000FC0FFFF08000240C5
:103ED000F8B5044620300579012D1ED00125057165
:103EE0000226467120680768AF4307602046FDF749
:103EF0005BFE20680168314301602068016804228C
:103F000011430160206801680822114301602068A4
:103F10000168294301600020F8BD0220F8BD0000BF
:103F200070B5074D04462846FFF7C2F9002805D1B1
:103F30000449486120602846FFF7BAF970BD0000C7
:103F400050C30000F40400200348416801221143DB
:103F5000416000207047000000200240F8B5124D7B
:103F60000746287C14460E46012807D001202874F5
:103F70000E48FFF79DF9002802D00CE00220F8BDA2
:103F800000216961022F09D0012F09D0002F09D02B
:103F90000648FFF78DF900212974F8BD3460FAE76F
:103FA0003480F8E73470F6E7F404002050C30000D2
:103FB00005484168C90705D00449C1600449C1608A
:103FC000002070470120704700200240EFCDAB89F0
:103FD00005040302F8B51A4E0546307C0F46012849
:103FE00007D0012030741748FFF762F9010002D0B2
:103FF00021E00220F8BD0020C04338606C6814E066
:104000002046FFF7F7F80F48FFF752F901460E4830
:10401000426808239A434260426843159A434260CB
:10402000002901D03C6006E08034A8686A68C001BD
:104030008018A042E4D8002030740846F8BD000083
:10404000F404002050C300000020024003484168EF
:10405000022211434160002070470000002002400E
:10406000F8B50C4C1646207C0F46012808D00120DC
:1040700020740948FFF71CF90025002802D006E04B
:104080000220F8BD65613E600348FFF711F9257411
:10409000F8BD0000F404002050C300000948416846
:1040A00089070CD54168C90703D00749C160074992
:1040B000C160074901610749016100207047012083
:1040C0007047000000200240EFCDAB8905040302D9
:1040D000BFAE9D8C1615141310B502F02DFA10BD4D
:1040E00010B504494A69024202D04861FFF7F4FF63
:1040F00010BD000000040140F8B500230124A7E032
:1041000027469F403A4070D04D68022D01D0122DB5
:1041100014D1DD08AD002D1800952D6A5E07AC4660
:10412000F50E0F26AE46AE406546B543AC460E6969
:104130007546AE4065462E43009D2E624D68012DAA
:1041400005D0022D03D0112D01D0122D16D1856876
:104150000326AC465D00AE46AE406546B543AC4670
:10416000CE687546AE4065462E43866046680D793A
:10417000BE43ED06ED0F9D403543456006685F0088
:104180000325BD40AE46AE430D79B446AE07B60F2B
:10419000BE4065462E430660C6687546AE438D68D0
:1041A000BD403543C5604D68ED0050D52B4D6E6B5D
:1041B00026436E639E082A4DB6007519AC46AD685D
:1041C0009E07360F0F27B740BD4305273F07B8426C
:1041D00001D100271AE0234FB84201D1012715E091
:1041E000214FB84202D1022710E030E01F4FB84201
:1041F00001D103270AE01E4FB84201D1042705E090
:104200001C4FB84201D1052700E00627B7402F43D5
:104210006546AF60184D2E684F689643FF0300D582
:1042200016432E606E684F689643BF0300D5164351
:104230006E60AE684F689643FF0200D51643AE60CD
:10424000EE684F689643BF0200D51643EE605B1CD4
:104250000A681546DD4000D052E7F8BD0010024064
:10426000000001400004005000080050000C005005
:1042700000100050001C005000040140002A01D032
:104280008161704781627047014800687047000093
:104290005800002070B504000FD021681348086052
:1042A00021681348086003CC41602068083C2168FD
:1042B0008860FFF7E9FF054608E0012070BDFFF7C1
:1042C000E3FF401B302801D9032070BD2068C0687F
:1042D0000028F4D120680269E1688A4201D00161B6
:1042E00001E004490160002070BD0000CCCC00005A
:1042F00055550000AAAA000000680249016000208C
:1043000070470000AAAA000002480168491C016029
:10431000704700005800002010B5064801680222CE
:1043200011430160032000F007F800F007F80020B7
:1043300010BD0000002002400020704710B5084862
:10434000816B02041143816300F02CF800F022F825
:104350000448016808221143016000F013F810BD01
:104360000010024000200240C106C90E0120884012
:10437000014908607047000000E100E010B504F05A
:10438000AFF910BD02480168021511430160704782
:1043900000700040024801684215114301607047F7
:1043A000007000400248016810229143016070478C
:1043B00000700040094B1A689208920002431A608C
:1043C0000748026904239A430261012903D040BFD0
:1043D00020BF20BF704730BF704700000070004012
:1043E00000ED00E00A4B1A689208920002431A603E
:1043F00008480369042213430361012906D040BF22
:1044000020BF20BF016991430161704730BFF9E7C8
:104410000070004000ED00E0F8B566490746012550
:104420000020ED03624B634A4031102F6FD011DC46
:10443000012F77D0022F6CD0042F6BD0082F24D1FE
:10444000C9680324240321407BD0BD026C10A9421B
:104450007CD0A0E00326584C3604202F0BD0402FF0
:1044600035D0FF3F012F10D1C968314069D07C049D
:10447000A1426BD096E00B690969012731403F04E6
:10448000B94203D1990559E02846F8BD01256D04CC
:10449000A94203D19907F8D54848F8BDB142FCD1EB
:1044A00011688903F9D51168032000050140012036
:1044B0000005091A09D0091A05D0814201D14048E6
:1044C000F8BD2046F8BD3F48F8BD3F48F8BDC96873
:1044D0000125AD06294006D0A942F7D19168890788
:1044E000F4D53A48F8BD11688901FBD5D068D16888
:1044F0008002374D000F2D5C0802810FD068491CE7
:10450000C0030AD41068C00605D5204606E045E081
:1045100008E023E030E0184600E02E486843FBF74F
:10452000E7FDF8BDCC68A407A40F0CD0022C0DD079
:10453000012C10D0032CF4D1096989050029A3DBD3
:10454000F8BD16E002E000F0D1F9F9E7116849077B
:10455000F6D51846F4E700F0D9F9F1E7CC680C2657
:10456000344006D0082CF1D0042CF4D00C2CE3D02D
:10457000E6E700F0ABF9E3E7CC680326B602344087
:10458000F7D00127FF02BC42E0D07A109442E2D07B
:10459000B442D1D0D4E7A142DDD0D1E7916B49023A
:1045A000E7D4CDE7012212049142D4D0C8E700003D
:1045B0000024F4000010024000093D008890000033
:1045C00020A1070040420F0080841E00006CDC0226
:1045D000544B010800127A00F8B5044600785E4D8D
:1045E000800672D55C4E0027403EB06BC00004D4FC
:1045F000B06BA9050843B063012758480168C90595
:1046000011D40168821511430160FFF73DFE00904F
:1046100005E0FFF739FE0099401A642837D84F4863
:104620000068C005F5D532680321090560680A40B5
:104630000140914208D08103890F032904D13168D8
:10464000890301D50120F8BD2A69032109040A4024
:1046500022D0084090421FD0207880061CD52869BF
:104660002A6988430121C9040A432A612A698A43C5
:104670002A612861C0050FD5FFF706FE009008E00B
:10468000FFF702FE0099411A3548814201D9032003
:10469000F8BD28698005F3D561688803800F032879
:1046A00005D132680005824301400A43326028691F
:1046B000032261681204114008432861002F04D0CE
:1046C000B06B012109078843B0632078C00705D08B
:1046D000E868A168800880000843E86020788007C7
:1046E00005D5E8680C218843E1680843E860207834
:1046F000400706D5E86803218902884321690843F9
:10470000E8602078000706D5E8680321090388439C
:1047100061690843E8602088C00506D5E868032180
:1047200009048843A1690843E8602078400606D55B
:10473000E868012189068843216A0843E8602078F7
:10474000000606D5E868032189048843E169084327
:10475000E8600020F8BD00004010024000700040FA
:1047600088130000F8B5054653480E460068C00798
:10477000C00FB0420AD2504801684908490031438D
:1047800001600068C007C00FB0426FD128784B4C61
:10479000800705D5E068F0218843A9680843E060F8
:1047A0002878C00752D06868022817D0032818D08C
:1047B0002168012818D08905002957DAE16889089D
:1047C00089000143E160FFF75FFD69680746022940
:1047D00012D003291CD0012926D033E02168890397
:1047E000EAE721688901E7E74907E5E7FFF74CFDBC
:1047F000C11B3348814223D8E0680007800F02289C
:10480000F4D123E0FFF740FDC11B2D48814217D8AA
:10481000E0680007800F0328F4D117E0FFF734FDAC
:10482000C11B274881420BD8E0680007800F012890
:10483000F4D10BE0FFF728FDC11B2148814201D9CB
:104840000320F8BDE0680007800FF3D11A48016823
:10485000C907C90FB1420BD9016849084900314362
:1048600001600068C007C00FB04201D00120F8BD50
:104870002878400706D5E068072109028843E968DF
:104880000843E0602878000707D5E0680721C902DF
:1048900088432969C9000843E06000F037F8E168FF
:1048A000084A0906090F515CC840074908600320FF
:1048B000FFF742FD0020F8BD00200240001002403A
:1048C00088130000444B01085400002004480549A7
:1048D0000068C968044A4905490F515CC8407047DF
:1048E00054000020001002405D4B010804480549B7
:1048F0000068C968044A8904490F515CC840704780
:1049000054000020001002405D4B010810B5184A09
:10491000D1680C20084004280BD0082810D00C289F
:1049200010D050680004410F0120C003491C88408A
:1049300010BD1068C00601D50E4810BD0E4810BD50
:104940000E4810BD88020E4B000F185C0902D36898
:10495000890F491CDB0301D5084A05E01268D2061D
:1049600001D5044A00E0044A5043FBF7C1FB10BDE7
:104970000010024000093D000024F40000127A00FB
:10498000544B0108F8B504460078FF4DC0074CD0E1
:10499000E8680007800F022807D0E8680007800F4A
:1049A000032809D1E868C00306D5286880033CD5F0
:1049B0006068002875D038E00120626800048242F7
:1049C00003D129680143296011E0052301211B045B
:1049D00089049A422A6802D10A432A60F1E7824395
:1049E0002A602A680240009228688843286060682C
:1049F00000280DD0FFF748FC0646E44F04E0FFF71F
:104A000043FC801BB8427DD828688003F7D50CE0B2
:104A1000FFF73AFC0646DD4F04E0FFF735FC801B4C
:104A2000B842F0D828688003F7D42078800741D5B1
:104A3000E8681F270007800F3F02012807D0E868B9
:104A40000007800F032809D1E868C00306D428684E
:104A5000400717D5E068012823D113E0E06800285B
:104A600017D029680922914301432960FFF70CFC04
:104A7000064604E0FFF708FC801B0228C3D828681C
:104A80004007F7D568682169B843090208436860A0
:104A900010E02868400840002860FFF7F5FB064654
:104AA00005E090E0FFF7F0FB801B0228ABD82868F8
:104AB0004007F7D42078C00676D5E868B44E0007E2
:104AC000800F0BD0E06900285DD02868FF210131FC
:104AD00008432860FFF7D8FB074644E028688005B4
:104AE00002D5E06900286ED0606A6968314088426A
:104AF00012D905F027FE0028AED16868616AB0437C
:104B0000084300E0E4E068606868218C0002000A65
:104B10000906084368600FE06968B14301436960B2
:104B20006868218C0002000A090608436860606A10
:104B300005F008FE00288FD1606A410B0120C003F8
:104B4000491C8840E968934A0906090F515CC8402E
:104B5000914908600320FFF7EFFB25E0FFF794FB86
:104B6000C01B02288AD828688005F7D56868616A62
:104B7000B043084368606868218C0002000A090697
:104B80000843686010E02968FF20013081432960F4
:104B9000FFF77AFB064604E0FFF776FB801B02284E
:104BA00084D828688005F7D420787C4E000723D568
:104BB00060690028306910D0012108433061FFF797
:104BC00063FB074605E009E1FFF75EFBC01B022817
:104BD0007ED830698007F7D50EE04008400030618C
:104BE000FFF752FB074604E0FFF74EFBC01B02280D
:104BF0006ED830698007F7D42078400761D5A86B5C
:104C00000027C00005D4A86B012109070843A86349
:104C1000012763480168C90511D401688215114351
:104C20000160FFF731FB009005E0FFF72DFB0099D5
:104C3000401A64284CD85A480068C005F5D5FF20B2
:104C4000A2680130824203D131690143316111E030
:104C500001218902002A07D005231B029A4203D1B1
:104C600032690A433261EFE7326982433261306967
:104C700088433061A06800280ED0FFF705FB009044
:104C800006E0FFF701FB0099411A404881421FD816
:104C900030698005F5D50DE0FFF7F6FA009006E0E3
:104CA000FFF7F2FA0099411A3848814210D830696A
:104CB0008005F5D4002F04D0A96B012000078143A3
:104CC000A9632078800630D53649A0694A1400E0EF
:104CD0007DE0002816D0AB6801200343AB606B6B0E
:104CE00003436B63086A10430862FFF7CDFA064678
:104CF00004E0FFF7C9FA801B022868D8A86880077B
:104D0000F7D512E0A86840084000A860086A904300
:104D10000862FFF7B9FA064604E0FFF7B5FA801B10
:104D2000022854D8A8688007F7D4A06A002853D076
:104D3000E9680907890F032950D0012636060228A1
:104D4000286805D0B0432860FFF79EFA044640E08B
:104D5000B0432860FFF798FA074604E0FFF794FA9B
:104D6000C01B022833D828688001F7D4216BE06A81
:104D7000EA680843616BFD231B049A43114308430F
:104D8000E860286830430FE00010024088130000FC
:104D900000E00000444B0108540000204010024095
:104DA00000700040000001402860FFF76DFA0446E3
:104DB00004E0FFF769FA001B022808D82868800180
:104DC000F7D509E0FFF760FA001B022801D903209C
:104DD000F8BD28688001F5D40020F8BD0120F8BD99
:104DE00030B5014620310A78012A15D001220A7017
:104DF00002234B700468CA2363620468532363620E
:104E000003689C6820252C439C600068FF23436254
:104E10004A700020087030BD022030BD10B508F087
:104E200025FE10BDF8B50546044620352878012832
:104E30001DD001202870022068702268CA205062AC
:104E4000226853205062FF2001300026FF27814254
:104E50001CD121688A6882438A60206881680122A7
:104E6000120391438160FFF70FFA009009E00220DE
:104E7000F8BDFFF709FA0099411A7D20C000814270
:104E80001BD82068C068C007F3D020E02068816884
:104E9000012252029143816020688168120191438E
:104EA0008160FFF7F1F900900DE0FFF7EDF900994F
:104EB000411A7D20C000814205D920684762032045
:104EC00068702E70F8BD2068C0688007EDD5206836
:104ED0004762012068702E700020F8BD10B5006890
:104EE0000B464068C021C94301400002000ECC04BB
:104EF000D870E40E5C708C06A40E0904490F9C70F7
:104F00001970002A0AD105F059FCD870587805F0BC
:104F100055FC5870987805F051FC9870002010BD31
:104F200030B50B460168896A59600168096949040E
:104F3000490C9960006804680F48214601408802C6
:104F40004D04800E18706D0E49065D70490E997003
:104F50006102490E40242140D970002A0AD105F08F
:104F60002DFC1870587805F029FC5870987805F0D9
:104F700025FC9870002030BD7F7F7F0070B5040055
:104F800005D0254620356878002802D006E00120AB
:104F900070BD00202870204600F042F802206870A2
:104FA0002168CA204862216853204862204605F0E3
:104FB00018FCFF210028206803D04162042068709B
:104FC000E5E78268154B1A40826022689068636842
:104FD000A669184323693343184390602268E06848
:104FE00010612068026923891B041A43026120684A
:104FF000C26880239A43C2602068C26C9208920003
:10500000C264E269606902432068C36C1A43C264E7
:105010002068416201206870002070BDBFFF8FFFD3
:1050200000B597B00420009000200A90FF200130C6
:1050300002906846FFF7A6FC002801D0FEF7D8F8DA
:1050400020200E90C0020F900EA8FFF7C5FA00288E
:1050500001D0FEF7CDF808480169012292041143FE
:105060000161002211460220FFF788F90220FFF7B4
:105070007BF917B000BD000040100240FEB50646A7
:105080000446203630780B46012842D0012030708B
:105090000220707020681D46002720358068002A95
:1050A00039D0400655D5187805F088FB287805F0EA
:1050B00085FB19789878090408435978DA78090249
:1050C000120411430843297809060843D9690843A3
:1050D0005969084305469969586808430090216852
:1050E000CA204862216853204862FF205A6A013072
:1050F000802182424AD12268936883439360226868
:10510000D0680840FF388238D060FFF7BDF80190C2
:1051100029E00220FEBD400600D4DF70187805F0BB
:1051200055FB0204587805F051FB000202439878C1
:1051300005F04CFB0243D87800040243287805F0C0
:1051400045FB00060243D8690243586902431546ED
:10515000C1E7DF70AAE7FFF797F80199411A7D20B0
:10516000C00081422AD82068C068C007F3D02068F8
:10517000C56121680098486420688168FF22013277
:105180001143816020688168120130E020688268E4
:1051900001235B029A4382602068C2680A401D496D
:1051A0005118C160FFF770F801900EE0FFF76CF83E
:1051B0000199411A7D20C000814206D92168FF2053
:1051C0004862032070703770FEBD2068C068800799
:1051D000ECD52068056221680098886420688168A1
:1051E000012252021143816020688168120111433B
:1051F000816009480268012149040A43026082680B
:105200000A4382602168FF20486201207070377075
:105210000020FEBD7FFDFFFF00040140F8B50546FC
:105220000446203528780B46012815D00120287027
:10523000022068705878002A10D005F0BFFA9878DC
:1052400005F0BCFAD8789E7800040643587819789F
:1052500000024903084316E00220F8BDC10603D549
:10526000EF2108400A305870D87805F0AFFA0604EC
:10527000587805F0ABFA00020643987805F0A6FAD4
:1052800006431878400306432168CA204862216813
:1052900053204862204605F0A4FA0027002811D1C7
:1052A00010480640206846602068C168802291430B
:1052B000C1602068806880060CD4204600F08CF81D
:1052C000002807D02168FF204862042068702F70F2
:1052D0000120F8BD2168FF204862012068702F700E
:1052E0000020F8BD3FFFFF00F8B506460446203613
:1052F00030780D4601280ED00120307002207070E9
:10530000206800278068002A07D040061AD5287830
:1053100005F054FA17E00220F8BD400600D4EF7003
:10532000287805F053FA0204687805F04FFA000275
:105330000243A87805F04AFA0243E87800040243E1
:1053400000920BE0EF702978A87809040843697887
:10535000EA78090212041143084300902168CA2028
:105360004862216853204862204605F03AFA002836
:105370001FD118490098084021680860206881689A
:1053800001229204914381602969E86808432168F9
:105390008A68104388602068C16880229143C16098
:1053A0002068806880060CD4204600F015F800289C
:1053B00007D02168FF2048620420707037700120F8
:1053C000F8BD2168FF20486201207070377000200E
:1053D000F8BD00007F7F7F0070B504460068C1689B
:1053E000A0229143C160FEF74FFF7D260546F600DF
:1053F00006E0FEF749FF401BB04201D9032070BD13
:105400002068C0688006F4D5002070BD70B5040027
:1054100006D025464035687C0026002802D005E0ED
:10542000012070BD2E74204600F032F8022068740E
:1054300020680168402291430160A1686068226988
:105440000843E16811430843616901220843A169E7
:10545000520211400843E1690843216A0843A16AE6
:10546000084321680860A0690421000C0840616AB3
:105470000843216848602168E06A08612068C169C2
:1054800092009143C161666501206874002070BD7F
:105490007047F8B504460027684607802646403620
:1054A000707C012802D0707C22287ED100290CD08B
:1054B000002A0AD0002B08D0307C012875D00120AA
:1054C0003074707C012802D003E00120F8BD322046
:1054D00070746765A263A387E3872163A386E3866D
:1054E000A764E7640125A06A6D03A84207D120687C
:1054F0000168A943016020680168294301602068B0
:105500000168490603D4016840221143016001216A
:10551000FF20E268C90205308A42616866D100292D
:1055200004D081420CD1E08E012809D1206B216882
:105530000088C860206B801C2063E08E401EE086DF
:10554000E08E002843D1A06AA84246D120680168B5
:1055500001221203114301603FE02068C068A16B83
:105560000880A06B801CA063B0E0002202212046CE
:10557000069B06F0F7FA00287DD1206B2168008891
:10558000C860206B801C2063E08E401EE086E08EA9
:10559000002808D1A06AA84205D12068016801222C
:1055A000120311430160002200E0CCE001212046FB
:1055B000069B06F0D7FA00287FD12068C068A16B4F
:1055C0000880A06B801CA063E08F401EE087E08E07
:1055D0000028CAD1606800287BD100220121204622
:1055E000069B06F0BFFA002867D1B6E7002904D071
:1055F00081420BD1E08E012808D1206B411C216330
:1056000021680078C860E08E401EE086E08E0028A9
:1056100045D1A06AA84205D1206801680122120381
:1056200011430160002201212046069B06F09AFAF0
:10563000002842D12068C068A16B087046E00022B3
:1056400002212046069B06F08DFA002835D1206BFA
:10565000411C216321680078C860E08E401EE0860E
:10566000E08E00280AD1A06AA84207D1206802680B
:105670000121090300E020E00A4302600022012129
:105680002046069B06F06EFA002816D12068C268F4
:10569000A06B411CA1630270E08F401EE087E08E8A
:1056A0000028CCD16068002813D1002201212046B7
:1056B000069B06F057FA002802D00320F8BD08E048
:1056C0002068C168A06B421CA2630170E08F401E7D
:1056D000E087A06AA8420FD1002201212046069B44
:1056E00006F040FA002802D0606D02210EE020682A
:1056F000C068694608800888012280212046069BF0
:1057000006F030FA002804D0606D2021084360655F
:10571000D3E701207074A06AA84211D12068816883
:10572000C943C9060CD4616D022211436165016849
:10573000A943016020680168294301603774C4E609
:1057400037740020BAE70220B8E702462032137D02
:10575000012B07D0012313750068016553750020E4
:10576000107570470220704710B500210F4800F0F7
:10577000DBF90F4CA268214653005B18521CA26053
:105780001880A06802280FD34A8808880021C943DE
:10579000081A401C101881B206480068FAF7A8FCE5
:1057A00060606068C000606010BD00009C04002064
:1057B0002C00002054000020F8B506460446203690
:1057C000307D0D4601283DD00120307502207075D6
:1057D000002A39D0042A46D0082A57D02B68297BC2
:1057E00020689E468C466B68016A01221203914331
:1057F0000162C169026A03273F02B9431B020B43DE
:105800000F2109038B4361460907090C194305233E
:105810005B039A4373460A273B401B031343C16152
:1058200003622068C169032292029143C16120682A
:10583000C169AA6812021143C1610120707500207C
:105840003075F8BD0220F8BDEB6806CD083D206834
:1058500008F09CF8206882690C218A4382612068E4
:105860008169AA680FE0EB6806CD083D206808F062
:10587000BBF820688269032189028A43826120681B
:105880008169AA68120211438161D6E788CD28791F
:1058900021688446086AFF22013290430862C86981
:1058A0000A6A800880003843F027B84367463F07FC
:1058B0003F0E07430520400282430A20034018029E
:1058C0001043CF6108622068C1690C229143C16115
:1058D0002068C1692A68AEE710B502210446203469
:1058E000617501680A6A064B1A4203D10A685208B8
:1058F00052000A6000F020F800206075207510BD8D
:105900001111000070B5040005D025462035687DD2
:10591000002802D006E0012070BD00202875204636
:1059200000F00CF802206875211D206807F0F2FFD6
:1059300001206875002070BD7047000010B5074851
:10594000416B042211434163002204211420FEF71D
:1059500015FD1420FEF708FD10BD000000100240E8
:1059600010B502680446002906D0042907D008298A
:1059700014D00C2907D114E0D068022301E0D068CC
:1059800004231843D0600122206807F0F3FF206849
:105990000168012211430160002010BDD068082376
:1059A000EFE7D0681023ECE710B502680446002941
:1059B00006D0042907D0082918D00C2907D118E0EF
:1059C000D068022301E0D06804239843D06000220D
:1059D000206807F0CFFF2068016A074A114203D10F
:1059E0000168490849000160002010BDD068082303
:1059F000EBE7D0681023E8E71111000070B504460A
:105A0000006801690025C9438907002915DBC168C1
:105A1000C943890711D4E91E01610120207520685E
:105A200080698007204602D0FFF79EFE04E000F068
:105A300078F8204600F076F8257520680169C9439A
:105A4000490717D4C168C943490713D40421C9437E
:105A5000016102202075206880698005800F204642
:105A600002D0FFF781FE04E000F05BF8204600F072
:105A700059F8257520680169C943090716D4C1681A
:105A8000C943090712D40821C943016104202075C4
:105A90002068C0698007204602D0FFF765FE04E059
:105AA00000F03FF8204600F03DF8257520680169B8
:105AB000C943C90617D4C168C943C90613D4102104
:105AC000C9430161082020752068C0698005800FE6
:105AD000204602D0FFF748FE04E000F022F82046FE
